{
  "contractName": "Verification",
  "abi": [
    {
      "constant": true,
      "inputs": [
        {
          "internalType": "bytes32",
          "name": "hash",
          "type": "bytes32"
        },
        {
          "internalType": "bytes",
          "name": "signature",
          "type": "bytes"
        }
      ],
      "name": "recover",
      "outputs": [
        {
          "internalType": "address",
          "name": "",
          "type": "address"
        }
      ],
      "payable": false,
      "stateMutability": "pure",
      "type": "function"
    }
  ],
  "bytecode": "0x608060405234801561001057600080fd5b506102bb806100206000396000f3fe608060405234801561001057600080fd5b506004361061002b5760003560e01c806319045a2514610030575b600080fd5b6100dd6004803603604081101561004657600080fd5b8135919081019060408101602082013564010000000081111561006857600080fd5b82018360208201111561007a57600080fd5b8035906020019184600183028401116401000000008311171561009c57600080fd5b91908080601f0160208091040260200160405190810160405280939291908181526020018383808284376000920191909152509295506100f9945050505050565b604080516001600160a01b039092168252519081900360200190f35b60008060008060606040518060400160405280601c81526020017f19457468657265756d205369676e6564204d6573736167653a0a3332000000008152509050600081886040516020018083805190602001908083835b6020831061016f5780518252601f199092019160209182019101610150565b51815160209384036101000a600019018019909216911617905292019384525060408051808503815293820190528251920191909120895190935060411491506101c3905057600095505050505050610280565b602087015160408801516060890151919650945060001a9250601b8310156101ec57601b830192505b8260ff16601b1415801561020457508260ff16601c14155b1561021757600095505050505050610280565b6040805160008152602080820180845284905260ff8616828401526060820188905260808201879052915160019260a0808401939192601f1981019281900390910190855afa15801561026e573d6000803e3d6000fd5b50505060206040510351955050505050505b9291505056fea265627a7a72315820cb2d5990abb99f9c0189556e7d229dad2934d8f046e61eeb6a58d89dacbdf11264736f6c63430005100032",
  "source": "pragma solidity >=0.4.22 <0.9.0;\r\n\r\n/**\r\n * Based upon ECDSA library from OpenZeppelin Solidity\r\n * https://github.com/OpenZeppelin/openzeppelin-solidity/blob/master/contracts/cryptography/ECDSA.sol\r\n */\r\n\r\ncontract Verification {\r\n\r\n  /**\r\n   * @dev Recover signer address from a message by using their signature\r\n   * @param hash bytes32 message, the hash is the signed message. What is recovered is the signer address.\r\n   * @param signature bytes signature, the signature is generated using web3.eth.sign()\r\n   */\r\n  function recover(bytes32 hash, bytes memory signature)\r\n    public\r\n    pure\r\n    returns (address)\r\n  {\r\n    bytes32 r;\r\n    bytes32 s;\r\n    uint8 v;\r\n\r\n    bytes memory prefix = \"\\x19Ethereum Signed Message:\\n32\";\r\n    bytes32 prefixedHash = keccak256(abi.encodePacked(prefix, hash));\r\n\r\n    // Check the signature length\r\n    if (signature.length != 65) {\r\n      return (address(0));\r\n    }\r\n\r\n    // Divide the signature in r, s and v variables\r\n    // ecrecover takes the signature parameters, and the only way to get them\r\n    // currently is to use assembly.\r\n    // solium-disable-next-line security/no-inline-assembly\r\n    assembly {\r\n      r := mload(add(signature, 0x20))\r\n      s := mload(add(signature, 0x40))\r\n      v := byte(0, mload(add(signature, 0x60)))\r\n    }\r\n\r\n    // Version of signature should be 27 or 28, but 0 and 1 are also possible versions\r\n    if (v < 27) {\r\n      v += 27;\r\n    }\r\n\r\n    // If the version is correct return the signer address\r\n    if (v != 27 && v != 28) {\r\n      return (address(0));\r\n    } else {\r\n      // solium-disable-next-line arg-overflow\r\n      return ecrecover(prefixedHash, v, r, s);\r\n    }\r\n  }\r\n}",
  "sourcePath": "D:\\Hack2021\\TruffleAddin\\contracts\\Verification.sol",
  "compiler": {
    "name": "solc",
    "version": "0.5.16+commit.9c3226ce.Emscripten.clang"
  },
  "schemaVersion": "3.4.3",
  "updatedAt": "2021-10-14T11:21:39.406Z",
  "networkType": "ethereum",
  "devdoc": {
    "methods": {
      "recover(bytes32,bytes)": {
        "details": "Recover signer address from a message by using their signature",
        "params": {
          "hash": "bytes32 message, the hash is the signed message. What is recovered is the signer address.",
          "signature": "bytes signature, the signature is generated using web3.eth.sign()"
        }
      }
    }
  },
  "userdoc": {
    "methods": {},
    "notice": "Based upon ECDSA library from OpenZeppelin Solidity https://github.com/OpenZeppelin/openzeppelin-solidity/blob/master/contracts/cryptography/ECDSA.sol"
  }
}